:020000042000DA
:100000000000012089010020F9010020FB010020EF
:10001000FD010020FF01002001020020000000007F
:1000200000000000000000000000000003020020AB
:100030000502002000000000070200200902002045
:100040000B0200200D020020BD1F0020E11F002038
:1000500013020020150200201702002019020020C0
:100060001B0200201D0200201F0200202102002090
:100070002302002049270020270200202902002017
:100080002B0200202D0200202F0200203102002030
:100090003302002035020020370200203902002000
:1000A0003B0200203D0200203F02002041020020D0
:1000B00043020020450200204702002049020020A0
:1000C0004B0200204D0200204F0200205102002070
:1000D0005302002055020020570200205902002040
:1000E0005B0200205D0200205F0200206102002010
:1000F00063020020650200206702002069020020E0
:100100006B0200206D0200206F02002071020020AF
:10011000730200207502002077020020790200207F
:100120007B0200207D0200207F020020810200204F
:10013000830200208502002087020020890200201F
:100140008B0200208D0200208F02002091020020EF
:1001500093020020950200209702002099020020BF
:100160009B0200209D0200209F020020A10200208F
:10017000A3020020A5020020A7020020A90200205F
:10018000AB020020AD0200204948804749480028C2
:100190000BD1494849494A4A884206D091421CBF7E
:1001A00050F8043B41F8043BF8D146484649474AD9
:1001B000884206D091421CBF50F8043B41F8043BF2
:1001C000F8D143484349444A914218BF41F8040BCF
:1001D000FAD1000000000000000000000000000054
:1001E000DFF8F8000FF2030E00474FF000004FF069
:1001F0000001DFF8ECF0FEE7FEE7FEE7FEE7FEE7D2
:10020000FEE7FEE7FEE7FEE7FEE7FEE7FEE7FEE7C6
:10021000FEE7FEE7FEE7FEE7FEE7FEE7FEE7FEE7B6
:10022000FEE7FEE7FEE7FEE7FEE7FEE7FEE7FEE7A6
:10023000FEE7FEE7FEE7FEE7FEE7FEE7FEE7FEE796
:10024000FEE7FEE7FEE7FEE7FEE7FEE7FEE7FEE786
:10025000FEE7FEE7FEE7FEE7FEE7FEE7FEE7FEE776
:10026000FEE7FEE7FEE7FEE7FEE7FEE7FEE7FEE766
:10027000FEE7FEE7FEE7FEE7FEE7FEE7FEE7FEE756
:10028000FEE7FEE7FEE7FEE7FEE7FEE7FEE7FEE746
:10029000FEE7FEE7FEE7FEE7FEE7FEE7FEE7FEE736
:1002A000FEE7FEE7FEE7FEE7FEE7FEE7FEE7704754
:1002B000F1280020000000000000002000000020C5
:1002C0004032002040320020403200205C330020C9
:1002D000000000005C330020184C0020592E002044
:1002E00021030020000000000000000000000000CA
:1002F00043F25C33C2F200031A780AB90120187085
:10030000704700BF43F24020C2F2000008B5036806
:100310002BB140F20003C0F2000303B1984708BDBF
:1003200080B584B000AF4FF000037B604FF0000356
:10033000BB604FF00003FB704FF00003BB7048F24E
:100340000003C4F203034FF00002DA664FF000032B
:10035000FB8116E0FA89FB89DBB203F14403D9B2D1
:1003600043F26033C2F200039954FA8943F61873DA
:10037000C2F200034FF000019954FB8903F101031D
:10038000FB81FA8940F2DB539A42E3D940F2DC5315
:10039000FB8113E0FA8943F26033C2F200034FF0AD
:1003A00033019954FA8943F61873C2F200034FF0EF
:1003B00000019954FB8903F10103FB81FA8940F69E
:1003C000B7339A42E6D900F0CFF800F099F94FF030
:1003D000000000F01FFA07F1030207F102031046C4
:1003E000194600F011F9FB78012B02D1BB784D2B97
:1003F00003D07B6803F101037B6007F1030207F17F
:1004000002031046194600F0C9F8FB78012B02D10F
:10041000BB784D2B03D07B6803F101037B604FF069
:10042000C803BB60B86843F26031C2F2000140F615
:10043000B83200F0C1FA4FF0C803BB60B86843F6A9
:100440001871C2F2000140F6B83200F01BF9FEE765
:1004500080B400AF00BEBD4680BC704780B483B09E
:1004600000AF7860396000BE07F10C07BD4680BC64
:10047000704700BF80B483B000AF78600B46FB705C
:1004800000BE07F10C07BD4680BC704780B483B046
:1004900000AF786000BE07F10C07BD4680BC704716
:1004A00080B483B000AF786000BE07F10C07BD4692
:1004B00080BC704780B483B000AF786000BE07F1A5
:1004C0000C07BD4680BC7047EFF3108072B67047D2
:1004D00080F31088704701607047006870470EB560
:1004E00003FA01F303EA020301686FEA020201EA78
:1004F000020141EA030101600EBD006800EA02004A
:1005000020FA01F0704701807047008870470EB5EF
:1005100003FA01F303EA020301886FEA020201EA27
:10052000020141EA030101800EBD008800EA0200D9
:1005300020FA01F0704701707047007870470EB5DF
:1005400003FA01F303EA020301786FEA020201EA07
:10055000020141EA030101700EBD007800EA0200C9
:1005600020FA01F07047000080B582B002AF44F677
:100570009430C2F2000000F041FB4FF008030093FA
:1005800044F69430C2F200004FF000014FF0407288
:100590004FF0080300F0E4FCBD4680BD80B588B094
:1005A00002AF786039606FF06003FB756FF0600335
:1005B0003B7444F69430C2F200004FF0000100F0AA
:1005C00077FD07F1100207F10C034FF003010091D2
:1005D00044F69430C2F2000011464FF0010200F0E0
:1005E00093FE44F69430C2F200004FF0000100F098
:1005F000E3FD3A7B7B681A707A7B3B681A7007F1DF
:100600001807BD4680BD00BF80B588B002AF7860D6
:1006100039604FF05A03FB756FF060033B744FF085
:1006200000037B744FF00003BB744FF00003FB74B6
:1006300044F69430C2F200004FF0000100F038FDA3
:1006400007F1100207F10C034FF00201009144F68C
:100650009430C2F2000011464FF0040200F054FE44
:1006600044F69430C2F200004FF0000100F0A4FD07
:100670003A7B7B681A707A7B3B681A7007F118071F
:10068000BD4680BD80B588B002AFF860B9607A60C1
:100690004FF003033B75FB684FEA1343DBB27B75F6
:1006A000FB684FEA1323DBB2BB75FB68DBB2FB755B
:1006B00044F69430C2F200004FF0000100F0F8FC64
:1006C00000F022FA7B689AB207F11403009244F614
:1006D0009430C2F2000019464FF00402BB6800F0EB
:1006E00013FE00F011FA44F69430C2F200004FF00D
:1006F000000100F061FD07F11807BD4680BD00BF95
:1007000080B584B002AF4FF006033B7144F69430DD
:10071000C2F200004FF0000100F0CAFC00F0F4F952
:1007200007F104034FF00002009244F69430C2F245
:10073000000019464FF001024FF0000300F0E4FD05
:100740004FF001033B714FF000037B7100F0DCF9C7
:1007500007F104034FF00002009244F69430C2F215
:10076000000019464FF002024FF0000300F0CCFDEC
:1007700000F0CAF944F69430C2F200004FF00001D4
:1007800000F01AFD07F10807BD4680BD80B584B0B2
:1007900002AF4FF00603FB7144F69430C2F2000042
:1007A0004FF0000100F084FC00F0AEF907F1070300
:1007B0004FF00002009244F69430C2F20000194655
:1007C0004FF001024FF0000300F09EFD6FF0380380
:1007D000FB7100F099F907F107034FF00002009256
:1007E00044F69430C2F2000019464FF001024FF077
:1007F000000300F089FD00F087F944F69430C2F25E
:1008000000004FF0000100F0D7FC07F10807BD46DB
:1008100080BD00BF80B586B002AF78604FF00603A0
:100820003B7344F69430C2F200004FF0000100F038
:100830003FFC00F069F907F10C034FF00002009251
:1008400044F69430C2F2000019464FF001024FF016
:10085000000300F059FD6FF027033B737B684FEAFC
:100860001343DBB27B737B684FEA1323DBB2BB73AA
:100870007B68DBB2FB7300F047F907F10C034FF024
:100880000002009244F69430C2F2000019464FF084
:1008900004024FF0000300F037FD00F035F944F694
:1008A0009430C2F200004FF0000100F085FC07F127
:1008B0001007BD4680BD00BF80B5ADF5087D02AF15
:1008C00007F10C0CCCF8000007F108000160394674
:1008D0000B6007F10803A3F102031A804FF0000335
:1008E000A7F8163207F10803A3F102031A88B7F834
:1008F00020321344A7F814324FF00003A7F8163241
:1009000011E0B7F81632B7F8161207F108021268AC
:100910000A44117807F11002D154B7F8163203F1E6
:100920000103A7F8163207F10803A3F10203B7F891
:1009300016221B889A42E4D34FF00003A7F8163220
:1009400016E007F10803A3F102031A88B7F816327C
:100950001344B7F816123A4612680A44117807F1A0
:100960001002D154B7F8163203F10103A7F816327A
:10097000B7F81622B7F820329A42E2D307F11002F4
:10098000B7F814324FF00001009144F69430C2F2EF
:10099000000011461A464FF0000300F0B5FC07F1C5
:1009A0000C03186801F0DAF80346002BF7D007F5BE
:1009B0000677BD4680BD00BF80B58CB002AFF86041
:1009C000B9607A6044F69430C2F200004FF0000142
:1009D00000F06EFB4FF00003BB617B68FB61FB68BE
:1009E0003B6250E03B6A03F0FF03C3F58073FB6199
:1009F0007A68BB69C3EB02037B627A6AFB699A423D
:100A000001D27B6AFB6100F07FF84FF006033B7573
:100A100007F114034FF00002009244F69430C2F242
:100A2000000019464FF001024FF0000300F06CFC8B
:100A300000F06AF84FF002033B753B6A4FEA13433C
:100A4000DBB27B753B6A4FEA1323DBB2BB753B6AB3
:100A5000DBB2FB75BA68BB691344FA6991B207F15E
:100A60001402009144F69430C2F2000011464FF097
:100A70000402FFF721FF3A6AFB6913443B62BA693B
:100A8000FB691344BB61BA697B689A42AAD34FF0F1
:100A900004033B7500F038F807F114034FF000022F
:100AA000009244F69430C2F2000019464FF0010261
:100AB0004FF0000300F028FC44F69430C2F200002E
:100AC0004FF0000100F078FB07F12807BD4680BD1C
:100AD00080B584B002AF4FF00503BB7107F1060289
:100AE00007F107034FF00101009144F69430C2F280
:100AF000000011464FF0010200F006FCFB79184699
:100B000007F10807BD4680BD80B584B002AF4FF045
:100B10000503BB7107F1060207F107034FF001015E
:100B2000009144F69430C2F2000011464FF00102E9
:100B300000F0EAFBFB7903F00103FB71FB79012B69
:100B4000E8D007F10807BD4680BD00BF80B483B080
:100B500000AF0346FB714EF20013CEF2000397F98B
:100B600007204FEA5212F97901F01F014FF00100FE
:100B700000FA01F143F8221007F10C07BD4680BCD2
:100B8000704700BF80B483B000AF0346FB714EF2E4
:100B90000013CEF2000397F907204FEA5212F979B9
:100BA00001F01F014FF0010000FA01F102F12002F3
:100BB00043F8221007F10C07BD4680BC704700BF08
:100BC00080B483B000AF0346FB714EF20013CEF247
:100BD000000397F907204FEA5212F97901F01F013B
:100BE0004FF0010000FA01F102F1600243F8221017
:100BF00007F10C07BD4680BC704700BF80B584B0CC
:100C000000AF78607A6844F69433C2F200039A42E7
:100C100007D07A6844F61033C2F200039A4200D03B
:100C200000BE7B681B795BB21846FFF7ABFF7868A4
:100C30004FF000014FF0840202F0FEF97B684FF0A4
:100C400001025A624FF00003FB810DE0FB897A68D4
:100C500003F106034FEAC30313444FF0FF325A6017
:100C6000FB8903F10103FB81FB89072BEED97A682D
:100C700044F69433C2F200039A4226D17A6841F2D4
:100C80000003C4F2000313607B684FF002021A7184
:100C900048F20003C4F2030348F20002C4F2030264
:100CA000926C42F400729A644FF00200FFF788FFE2
:100CB00048F20003C4F2030348F20002C4F2030244
:100CC000926C22F400729A6425E07A6841F2000383
:100CD000C4F2010313607B684FF003021A7148F2FB
:100CE0000003C4F2030348F20002C4F20302926C50
:100CF00042F480629A644FF00300FFF761FF48F20C
:100D00000003C4F2030348F20002C4F20302926C2F
:100D100022F480629A647B681B687A6812681268A1
:100D200022F000421A6007F11007BD4680BD00BFE7
:100D300080B58AB000AF78607B681B681B68FB6079
:100D40007B681B689B693B617B681B685B687B6198
:100D50007B681B689B6ABB617B681B681B6BFB61C4
:100D60007B681B685B6B3B627B681B68DB697B6233
:100D70007A6844F69433C2F200039A422ED17A681C
:100D800041F20003C4F2000313607B684FF00202DB
:100D90001A7148F20003C4F2030348F20002C4F2DD
:100DA0000302926C42F400729A644FF00200FFF763
:100DB00007FF48F20003C4F2030348F20002C4F242
:100DC0000302926C22F400729A647B681B687A6852
:100DD0001268126822F000421A602DE07A6841F22F
:100DE0000003C4F2010313607B684FF003021A7121
:100DF00048F20003C4F2030348F20002C4F2030203
:100E0000926C42F480629A644FF00300FFF7D8FEC0
:100E100048F20003C4F2030348F20002C4F20302E2
:100E2000926C22F480629A647B681B687A6812680C
:100E3000126822F000421A60FB6823F00103FB6095
:100E40007B681B68FA681A607B681B683A699A615C
:100E50007B681B687A695A607B681B687A681268CD
:100E6000126842F001021A607B681B68BA699A62D4
:100E70007B681B68FA691A637B681B683A6A5A6365
:100E80007B681B687A6ADA6107F12807BD4680BD76
:100E900080B584B000AFF860B9601346FB71FA68A2
:100EA00044F69433C2F200039A4207D0FA6844F63B
:100EB0001033C2F200039A4200D000BEFB79202B0F
:100EC00000D900BEFB681B795BB21846FFF75AFEDB
:100ED000FB684FF0000283F88020FB681B68FA680B
:100EE0001268126822F002021A60FB681B68FA6836
:100EF0001268126822F001021A60FB681A68FB6827
:100F00001B681B6823F0407323F00C03B96843EAA5
:100F1000010343F000531360FB681A68FB681B6809
:100F2000196840F2FF03CFF6007301EA030343F4AC
:100F300080731360FB681B68FA795A60FB681B6852
:100F4000FA681268126842F001021A60FB681B79A5
:100F50005BB21846FFF7FAFD07F11007BD4680BDEA
:100F600080B586B000AFF8607A603B600B46FB72DC
:100F7000FA6844F69433C2F200039A4207D0FA6842
:100F800044F61033C2F200039A4200D000BEFB7A4E
:100F9000072B00D900BE97F82030202B00D900BEC7
:100FA0003B68012B00D800BE3B68B3F5007F00D939
:100FB00000BE3B6803F00103002B00D000BEFB68BD
:100FC0001B795BB21846FFF7DDFDFB684FF00002AE
:100FD00083F88020FB681B68FA681268126822F0A8
:100FE00001021A60FB681B68FA681268126842F016
:100FF00002021A60FB681B68FA681268126842F005
:1010000001021A60FB7A072B47D87B68002B0BD0B4
:101010007B68B3F1007F07D07B68B3F1807F03D09A
:101020007B68B3F1407F0FD1FA7A796840F20213FE
:10103000C3F2004341EA0303F96802F106024FEAF2
:10104000C2020A4453600EE0FA7A796840F2021351
:10105000C3F2000341EA0303F96802F106024FEA12
:10106000C2020A445360FB7AFA6803F106034FEAAE
:10107000C303134497F820201A723B684FEA5303C6
:1010800003F1FF337B61FB7A7A69D2B2F96803F12D
:1010900006034FEAC3030B445A72FB681B795BB229
:1010A0001846FFF753FD07F11807BD4680BD00BF86
:1010B00080B584B000AF78600B46FB707A6844F668
:1010C0009433C2F200039A4207D07A6844F6103390
:1010D000C2F200039A4200D000BE7B681B681B6806
:1010E00003F00203002B00D100BEFB787A6803F105
:1010F00006034FEAC30313445B68B3F1FF3F00D11B
:1011000000BE7B681B795BB21846FFF73BFD7B682E
:101110001B689B6803F00403FB60FB68002B02D094
:101120007868FFF705FE7B681B687A6812681268AA
:1011300022F001021A607B681A68FB78796803F173
:1011400006034FEAC3030B445B6813607B681A68AD
:10115000FB78796803F106034FEAC3030B445B7A1B
:1011600093617B681A68FB78796803F106034FEA9C
:10117000C3030B441B7A53607B681B687A68126850
:10118000126842F001021A607B681B687A68126874
:10119000D169FA784FF0010000FA02F241EA020246
:1011A000DA617B681B795BB21846FFF7CFFC07F169
:1011B0001007BD4680BD00BF80B584B000AF786029
:1011C0000B46FB707A6844F69433C2F200039A42ED
:1011D00007D07A6844F61033C2F200039A4200D076
:1011E00000BE7B681B681B6803F00203002B00D164
:1011F00000BE7B681B795BB21846FFF7C3FC7B68B7
:101200001B689B6803F00403FB60FB68002B02D0A3
:101210007868FFF78DFD7B681B687A681268D16972
:10122000FA784FF0010000FA02F26FEA020201EAD6
:101230000202DA617B681B795BB21846FFF786FC15
:1012400007F11007BD4680BD80B485B000AF78605F
:1012500039607A6844F69433C2F200039A4207D0A8
:101260007A6844F61033C2F200039A4200D000BEFE
:101270007B681B681B6803F00203002B00D100BED3
:101280007B681A687B681B68196840F2FF03CFF619
:10129000007301EA030343F4807313607B681B68E7
:1012A0007A681268D26A42F00C02DA627B681B68C4
:1012B0003A685A617B681B689B6803F00103FB6016
:1012C00005E07B681B689B6803F00103FB60FB681B
:1012D000002BF6D07B681B689B6803F00203BB60A1
:1012E00005E07B681B689B6803F00203BB60BB687A
:1012F000002BF6D07B681B681B69184607F11407A2
:10130000BD4680BC704700BF80B58EB000AFF860AE
:10131000B9603B601346FB804FF000037B834FF0C6
:101320000003FB84FA6844F69433C2F200039A4245
:1013300007D0FA6844F61033C2F200039A4200D094
:1013400000BEFB681B681B6803F00203002B00D182
:1013500000BEFA88B7F840301344FB86FB8E002BA2
:1013600003D14FF001033B6201E0FB8E3B62FB685F
:101370001B68FA681268D26A42F00C02DA62FB68F3
:101380001B689B6803F00403FB62FB6A002B02D01E
:10139000F868FFF7CDFCFB681B68FA6812681268F2
:1013A00022F001021A60FB681968FB681B681B6861
:1013B00040F2FF02CFF6007203EA02023B6A4FEAF4
:1013C00003204FF60073C0F2FF0300EA030342EA72
:1013D00003030B60FB681B684FF008025A60FB6850
:1013E0001B68FA681268126842F001021A60FB6812
:1013F0001B689B6803F040033B6309E0FB681B68C4
:101400001B697B61FB681B689B6803F040033B63BF
:101410003B6B002BF2D04FF00003BB834FF0000377
:10142000FB83BA8BFB889A420FD2FB681B68B98B8F
:10143000BA680A4412785A61BB8B03F10103BB837B
:10144000FB8C03F10103FB846AE0BA8BFB8E9A42AA
:1014500066D2FB681B684FF000025A61BB8B03F138
:101460000103BB83FB8C03F10103FB8458E0FB68A1
:101470001B689B6803F040033B633B6B002B1ED152
:10148000FB681B681B697B617A8BFB889A420ED3D1
:10149000FA8BB7F840309A4205D2FA8B3B68134476
:1014A0007A69D2B21A70FB8B03F10103FB837B8B49
:1014B00003F101037B83FB8C03F1FF33FB84FB68A7
:1014C0001B689B6803F48073BB62BB6A002B27D147
:1014D000FB8C032B24D8BA8BFB889A420FD2FB6873
:1014E0001B68B98BBA680A4412785A61BB8B03F146
:1014F0000103BB83FB8C03F10103FB8410E0BA8B77
:10150000FB8E9A420CD2FB681B684FF000025A61B6
:10151000BB8B03F10103BB83FB8C03F10103FB8451
:101520007A8BFB8E9A42A2D307F13807BD4680BD65
:1015300080B584B000AF786039607A6844F694333F
:10154000C2F200039A4207D07A6844F61033C2F21E
:1015500000039A4200D000BE7B681B681B6803F042
:101560000203002B00D000BE7B681B795BB21846DB
:10157000FFF708FB7B684FF00002DA677B684FF0EB
:1015800000021A627B683A685A677B684FF0020271
:1015900083F880207B681B689B6803F48063FB6092
:1015A000FB68002B07D07B681B687A681268D26AD8
:1015B00042F00102DA627B681A687B681B6819686E
:1015C00040F2FF03CFF6007301EA030343F4807394
:1015D00013607B681B687A681268926A22F01002B6
:1015E0009A627B681B687A681268926A22F020020D
:1015F0009A627B681B684FF00E02DA607B681B689A
:101600007A681268126842F0D0021A607B681B790F
:101610005BB21846FFF79AFA07F11007BD4680BD86
:1016200080B582B000AF786039607A6844F6943350
:10163000C2F200039A4207D07A6844F61033C2F22D
:1016400000039A4200D000BE7B681B681B6803F051
:101650000203002B00D000BE7B681B795BB21846EA
:10166000FFF790FA7B684FF0020283F880207B68D6
:101670004FF00002DA677B684FF000021A627B6865
:101680004FF000029A607B684FF00002DA607B68DE
:101690004FF000021A617B683A689A677B681B68A2
:1016A0007A681268D26A22F00102DA627B681B68EB
:1016B0007A681268D26A42F00802DA627B681A68B5
:1016C0007B681B68196840F2FF03CFF6007301EADC
:1016D000030343F4807313607B681B687A68926F1E
:1016E0005A617B681B687A681268926A22F010025D
:1016F0009A627B681B687A681268926A22F02002FC
:101700009A627B681B684FF00D02DA607B681B6889
:101710007A681268126842F0E0021A607B681B79EE
:101720005BB21846FFF712FA07F10807BD4680BD05
:1017300080B588B000AFF860B9607A603B604FF068
:101740000003FB61FA6844F69433C2F200039A4244
:1017500007D0FA6844F61033C2F200039A4200D070
:1017600000BEFB681B681B6803F00203002B00D05F
:1017700000BEFB681B795BB21846FFF703FAFB68F3
:101780004FF0010283F88020FB681B6A002B04D114
:10179000FB684FF001025A6203E0FB684FF0000261
:1017A0005A62FB684FF000025A67FB68FA6ADA6710
:1017B000FB683A689A62FB68BA6ADA62FB684FF0C3
:1017C00000021A63FB68BA689A60FB687A68DA609C
:1017D000FB684FF000021A61FB681B68FA68126828
:1017E000D26A42F00C02DA62FB681B689B6803F065
:1017F0000403002B0AD0F868FFF79AFA07E0FB68A9
:101800001B681B697B617B697B6100E000BFFB6833
:101810001B689B6803F04003002BF0D04FF01003CF
:10182000BB61FB681B68FA681268126822F001024B
:101830001A60FB681A68FB681B68196840F2FF03AE
:10184000CFF6007301EA0303B9694FEA012143EAC5
:1018500001031360FB681B684FF008025A60FB68C5
:101860001B68FA681268126842F001021A6022E0EE
:10187000FB681A69FB68DB689A4209D2FB681B683F
:10188000FA689168FA6812690A4412785A610CE0A1
:10189000FB685B6A002B05D0FB681B684FF00002F9
:1018A0005A6102E04FF00103FB61FB681B6903F121
:1018B0000102FB681A61FB681B689B6803F4807374
:1018C000002B02D1FB69002BD2D07B68002B15D0F6
:1018D000FB681B68FA681268D26A22F00102DA62B9
:1018E000FB681B684FF00102DA60FB681B68FA684E
:1018F0001268126842F020021A6007E0FB681B6859
:10190000FA681268D26A42F00102DA62FB681B6A66
:10191000002B07D1FB681B68FA681268926A22F0F4
:1019200010029A62FB681B684FF02002DA60FB68C5
:101930001B68FA681268926A42F020029A62FB6899
:101940001B684FF00E02DA60FB681B68FA681268C9
:10195000126842F0D0021A60FB681B795BB218462D
:10196000FFF7F4F807F12007BD4680BD80B584B0CD
:1019700000AFF860B9607A60FB681B795BB218460B
:10198000FFF700F9FB684FF000025A61FB684FF067
:1019900000029A61FB684FF00002DA61BB68002B1D
:1019A00015D1FB684FF001025A62FB684FF000024C
:1019B0001A62FB681B684FF000025A63FB681B68E1
:1019C000FA681268926A22F010029A6226E0FB68B6
:1019D0004FF000025A62FB68BA681A62FB681B6823
:1019E0007A685A63FB681B68FA681268D26A42F028
:1019F0000C02DA62FB684FF000021A61F86800F02E
:101A0000BFF8FB681B684FF01002DA60FB681B68C8
:101A1000FA681268926A42F010029A62FB681B79B7
:101A20005BB21846FFF792F807F11007BD4680BD7C
:101A300080B584B000AFF860B9607A60FB68BA68BE
:101A40005A61FB687A689A61FB684FF00002DA61BC
:101A5000FB684FF001025A62F86800F091F807F154
:101A60001007BD4680BD00BF80B582B000AF786072
:101A70007B681B795BB21846FFF784F87B681B68AC
:101A80007A681268126842F001021A607B681B795A
:101A90005BB21846FFF75AF807F10807BD4680BD4C
:101AA00080B582B000AF78607B681B795BB2184666
:101AB000FFF768F87B681B687A681268126822F082
:101AC00001021A607B681B795BB21846FFF73EF88B
:101AD00007F10807BD4680BD80B582B000AF7860D1
:101AE0000B467B807B681B795BB21846FFF74AF890
:101AF0007B6819687B681B681B6840F2FF02CFF6A1
:101B0000007203EA02027B884FEA03204FF600735B
:101B1000C0F2FF0300EA030342EA03030B607B68A1
:101B20001B687A681268126822F001021A607B68EA
:101B30001B684FF008025A607B681B687A6812685D
:101B4000126842F001021A607B681B795BB218468A
:101B5000FEF7FCFF07F10807BD4680BD80B485B0E5
:101B600000AF78607B681B689B6803F00103FB6033
:101B7000FB68184607F11407BD4680BC704700BFDC
:101B800080B485B000AF78604FF00003FB600EE0DA
:101B90007B681B687A6891687A6812690A441278CF
:101BA0005A617B681B6903F101027B681A617B68DB
:101BB0001B689B6803F48073002B05D17B681A694E
:101BC0007B68DB689A42E3D37B681A697B68DB68D1
:101BD0009A421CD30EE07B681B687A6851697A6868
:101BE000D2690A4412785A617B68DB6903F1010209
:101BF0007B68DA617B681B689B6803F48073002B49
:101C000005D17B68DA697B689B699A42E3D37B687C
:101C10005B6A002B1FD07B681A697B68DB689A427D
:101C200019D37B68DA697B689B699A4213D308E011
:101C30007B681B684FF000025A61FB6803F10103E7
:101C4000FB607B681B689B6803F48073002B02D1E8
:101C5000FB681F2BECD907F11407BD4680BC704709
:101C600080B584B000AF78607B6893F88030022B39
:101C700015D10CE07B681B681B69FB607B685B6FA0
:101C8000002B04D07B685B6FFA68104698477B682E
:101C90001B689B6803F04003002BEBD032E07B68AD
:101CA00093F88030012B25D117E07B681B681B69F6
:101CB000FB607B681A6B7B68DB6A9A4207D27B68A1
:101CC0009A6A7B681B6B1344FA68D2B21A707B68FD
:101CD0001B6B03F101027B681A637B681B689B68BE
:101CE00003F04003002BE0D00CE07B681B681B690D
:101CF000FB6000E000BF7B681B689B6803F040034B
:101D0000002BF2D007F11007BD4680BD80B586B02C
:101D100000AF78607B681B6803F120033B617A6841
:101D200044F69433C2F200039A4207D07A6844F62C
:101D30001033C2F200039A4200D000BE3B691B6818
:101D400003F00203002B52D07B6893F88030022B03
:101D500015D10CE07B681B681B69FB607B685B6FBF
:101D6000002B04D07B685B6FFA68104698477B684D
:101D70001B689B6803F04003002BEBD032E07B68CC
:101D800093F88030012B25D117E07B681B681B6915
:101D9000FB607B681A6B7B68DB6A9A4207D27B68C0
:101DA0009A6A7B681B6B1344FA68D2B21A707B681C
:101DB0001B6B03F101027B681A637B681B689B68DD
:101DC00003F04003002BE0D00CE07B681B681B692C
:101DD000FB6000E000BF7B681B689B6803F040036A
:101DE000002BF2D07B681B684FF00202DA603B697F
:101DF0001B6803F00103DBB2002B12D07B6893F861
:101E00008030022B05D17B681B687A68926F5A611B
:101E100002E07868FFF7B4FE7B681B684FF00102B0
:101E2000DA603B691B6803F01003002B23D078684D
:101E3000FFF716FF7B681B6A002B0BD07B681B6AC1
:101E40007A68916A7A68126B0846114698477868F2
:101E5000FFF796FE7B684FF001025A627B681B68B1
:101E60007A681268926A22F010029A627B681B6894
:101E70004FF01002DA603B691B6803F00403002B8B
:101E80000FD07B681B687A681268D26A42F004023D
:101E9000DA627868FEF74CFF7B681B684FF004023B
:101EA000DA603B691B6803F00803002B31D07B68C4
:101EB0001B687A681268D26A42F00802DA627B68AC
:101EC00093F88030022B13D17B681A687B681B68FB
:101ED000196840F2FF03CFF6007301EA030343F4ED
:101EE000807313607B681B687A68926F5A610BE09D
:101EF0007B6893F88030012B06D17B684FF000029D
:101F00001A617868FFF73CFE7B681B684FF0080297
:101F1000DA603B691B6803F02003002B49D0786826
:101F2000FFF79EFE7B681B6B7B617B681B6A002B47
:101F30001CD07B684FF000025A627B684FF00002B1
:101F40005A617B684FF000029A617B684FF0000293
:101F5000DA617B681B684FF01002DA607B681B68EF
:101F60007A681268926A42F010029A627B684FF0B7
:101F700000021A617B681B687A681268D26A42F0B4
:101F80000C02DA627868FFF7FBFD7B684FF0000215
:101F90001A637B68DB6F002B06D07B68DB6F7A6887
:101FA000926A1046796998477B681B684FF0200257
:101FB000DA6007F11807BD4680BD00BF684620F013
:101FC00007018D4689B500AF44F69430C2F2000097
:101FD000FFF79CFEBD46BDE889408546704700BFBF
:101FE000684620F007018D4689B500AF44F61030F1
:101FF000C2F20000FFF78AFEBD46BDE88940854673
:10200000704700BF80B483B000AF0346FB714EF24F
:102010000013CEF2000397F907204FEA5212F97924
:1020200001F01F014FF0010000FA01F143F8221006
:1020300007F10C07BD4680BC704700BF80B483B079
:1020400000AF0346FB714EF20013CEF2000397F986
:1020500007204FEA5212F97901F01F014FF00100F9
:1020600000FA01F102F1600243F8221007F10C07B7
:10207000BD4680BC704700BF80B582B000AF48F25B
:102080000003C4F2030348F20002C4F20302926C9C
:1020900042F020029A644FF00D00FFF7CFFF48F2A4
:1020A0000003C4F2030348F20002C4F20302926C7C
:1020B00022F020029A644FF000037B6024E07A68EB
:1020C00044F6D023C2F200034FF0000199547A681D
:1020D00044F6D823C2F200034FF0000199547A6805
:1020E00044F6E023C2F200034FF0000199547A68ED
:1020F00044F6E823C2F200034FF0000143F8221037
:102100007B6803F101037B607B68072BD7DD07F158
:102110000807BD4680BD00BF80B598B000AFBA606B
:102120000246FA730A46BA73FB7143F2A413C2F271
:10213000000307F110011A464FF0500308461146FC
:102140001A4600F0B1FE43F20003C4F20003F97B2B
:1021500043F20002C4F20002F87B00F101004FEAF2
:1021600040100244126842F0200201F101014FEADE
:1021700041110B441A6043F20003C4F20003F97BDF
:1021800043F20002C4F20002F87B00F101004FEAC2
:1021900040100244126822F0200201F101014FEACE
:1021A00041110B441A60BB7B142B1FD043F2000378
:1021B000C4F20003F97B43F20002C4F20002F87B90
:1021C00000F101004FEA401002441068BA7B4FEA68
:1021D000820207F1600C624452F8502C40EA02027D
:1021E00001F101014FEA41110B441A6043F200036F
:1021F000C4F20003F97B43F20002C4F20002F87B50
:1022000000F101004FEA401002441068BA6840EA49
:10221000020201F101014FEA41110B441A6043F23D
:102220000003C4F20003F97B43F20002C4F200028F
:10223000F87B00F101004FEA401002441068FA797F
:102240004FEA823240EA020201F101014FEA4111F4
:102250000B441A6007F16007BD4680BD80B485B0AD
:1022600000AFB9607A600246FA737B8043F20003E4
:10227000C4F20003F97B43F20002C4F20002F87BCF
:1022800000F101004FEA40100244126842F01002CF
:1022900001F101014FEA41110B441A6043F20003BE
:1022A000C4F20003FA7B02F101024FEA4212134426
:1022B00003F104031B6803F00103DBB2002B1FD002
:1022C00043F20003C4F20003F97B43F20002C4F2BC
:1022D0000002F87B00F101004FEA4010024412684E
:1022E00042F0800201F101014FEA41110B441A60F2
:1022F000FA7B44F6D823C2F200034FF00001995450
:1023000043F20003C4F20003FA7B02F101024FEA38
:102310004212134403F104031B6803F00203002B71
:102320001FD043F20003C4F20003F97B43F2000222
:10233000C4F20002F87B00F101004FEA40100244B1
:10234000126842F4807201F101014FEA41110B441D
:102350001A60FA7B44F6E023C2F200034FF000015A
:10236000995443F20003C4F20003FA7B02F1010224
:102370004FEA4212134403F104031B6803F0040301
:10238000002B34D0FA7B44F6D023C2F200034FF086
:1023900000019954FA7B44F6E023C2F200034FF0A7
:1023A0000101995443F20003C4F20003FA7B4FEA9F
:1023B0004212134403F13403BA681A6043F2000373
:1023C000C4F20003FA7B4FEA4212134403F13803CC
:1023D0007A681A6043F20003C4F20003F97B7A883A
:1023E0004FEA41110B4403F13C031A6033E0FA7BDE
:1023F00044F6D023C2F200034FF001019954FA7B56
:1024000044F6D823C2F200034FF00101995443F27D
:102410000003C4F20003FA7B4FEA4212134403F1B3
:102420002803BA681A6043F20003C4F20003FA7B7F
:102430004FEA4212134403F12C037A681A6043F204
:102440000003C4F20003F97B7A884FEA41110B4480
:1024500003F130031A6043F20003C4F20003F97B76
:1024600043F20002C4F20002F87B00F101004FEADF
:1024700040100244126822F0100201F101014FEAFB
:1024800041110B441A6007F11407BD4680BC704728
:1024900080B489B000AFB9607A600246FA737B807D
:1024A000FA7B44F6D023C2F200039B5C002B68D178
:1024B000FA7B44F6D823C2F200039B5C012B2BD19C
:1024C000FB7B4FEA43034FF0010202FA03F37B6107
:1024D00043F20003C4F200035A687B6902EA030373
:1024E0003B613B69002BF3D043F20003C4F20003CD
:1024F000F97B43F20002C4F20002F87B00F1010014
:102500004FEA40100244126842F0800201F10101DA
:102510004FEA41110B441A6043F20003C4F2000376
:10252000FA7B4FEA4212134403F12803BA681A6097
:1025300043F20003C4F20003FA7B4FEA4212134451
:1025400003F12C037A681A6043F20003C4F200031B
:10255000F97B7A884FEA41110B4403F130031A608A
:10256000FA7B44F6D023C2F200034FF001019954E4
:10257000FA7B44F6D823C2F200034FF001019954CC
:1025800069E0FA7B44F6E023C2F200039B5C012B76
:102590002DD1FB7B4FEA430303F101034FF001020E
:1025A00002FA03F3FB6143F20003C4F200035A682A
:1025B000FB6902EA0303BB61BB69002BF3D043F262
:1025C0000003C4F20003F97B43F20002C4F20002EC
:1025D000F87B00F101004FEA40100244126842F417
:1025E000807201F101014FEA41110B441A6043F27C
:1025F0000003C4F20003FA7B4FEA4212134403F1D2
:102600003403BA681A6043F20003C4F20003FA7B91
:102610004FEA4212134403F138037A681A6043F216
:102620000003C4F20003F97B7A884FEA41110B449E
:1026300003F13C031A60FA7B44F6D023C2F2000394
:102640004FF000019954FA7B44F6E023C2F20003F4
:102650004FF00101995407F12407BD4680BC704733
:1026600080B485B000AF0346FB7143F20003C4F2AF
:102670000003FA7902F101024FEA4212134403F116
:1026800004031B6803F00303FB60FB68184607F1B3
:102690001407BD4680BC704780B485B000AF0346C8
:1026A000FB804FF00003FB73FB8803F00303002B58
:1026B00003D04FF00003FB733FE0FB8803F00C03F3
:1026C000002B03D04FF00103FB7336E0FB8803F0CF
:1026D0003003002B03D04FF00203FB732DE0FB8887
:1026E00003F0C003002B03D04FF00303FB7324E07F
:1026F000FB8803F44073002B03D04FF00403FB73FB
:102700001BE0FB8803F44063002B03D04FF005036C
:10271000FB7312E0FB8803F44053002B03D04FF00F
:102720000603FB7309E0FB8803F44043002B03D04E
:102730004FF00703FB7300E000BEFB7B184607F178
:102740001407BD4680BC7047684620F007018D46DF
:1027500081B587B000AF43F29413C2F2000307F1D2
:10276000040C0FCB8CE80F0043F20003C4F200030B
:102770005B68BB82BB8A1846FFF78EFF0346FB757A
:10278000FB7D4FEA430307F11802134433F8143C6E
:102790006FEA03039AB2BB8A02EA0303BB82FA7DA3
:1027A00044F6E823C2F2000353F82230002B07D08E
:1027B000FA7D44F6E823C2F2000353F8223098472A
:1027C000BB8A002BD6D107F11C07BD46BDE881406E
:1027D0008546704780B582B000AF03463960FB7113
:1027E000FA7944F6E823C2F20003396843F822106C
:1027F00043F20003C4F20003F97943F20002C4F289
:102800000002F87900F101004FEA4010024412681A
:1028100042F0400201F101014FEA41110B441A60FC
:102820004FF00D00FFF7EEFB07F10807BD4680BD36
:1028300080B582B000AF0346FB7143F20003C4F2DF
:102840000003F97943F20002C4F20002F87900F1C2
:1028500001004FEA40100244126842F0400201F1C8
:1028600001014FEA41110B441A604FF00D00FFF7D0
:10287000C9FB07F10807BD4680BD00BF80B483B027
:1028800000AF0346FB7143F20003C4F20003F97981
:1028900043F20002C4F20002F87900F101004FEAAD
:1028A00040100244126842F0800201F101014FEA37
:1028B00041110B441A6043F20003C4F20003F9799A
:1028C00043F20002C4F20002F87900F101004FEA7D
:1028D00040100244126842F4807201F101014FEA93
:1028E00041110B441A6007F10C07BD4680BC7047CC
:1028F00080B500AF00F036F94EF60053CEF200037B
:102900004EF60052CEF20002526942F400725A6151
:10291000FDF7CDFC80BD00BF80B588B000AF48F2A8
:102920000003C4F20303D3F8983003F08063FB6024
:10293000FB68002B40F08B8048F20003C4F20303D5
:10294000D3F8983003F480537B617B69002B3FD12F
:1029500043F24823C2F200034FF28052C0F6E41261
:102960001A6043F24C23C2F2000347F6C022C0F2C1
:10297000F2421A6043F25023C2F2000347F6C0222B
:10298000C0F2F2421A6043F25423C2F2000343F64B
:102990006052C0F279221A6043F25823C2F2000357
:1029A0004FF28052C0F6E4121A6043F25C23C2F286
:1029B00000034FF28052C0F6E4121A6043F2602323
:1029C000C2F200034FF28052C0F6E4121A6045E0F2
:1029D00043F2F413C2F2000307F1040293E8030088
:1029E00082E8030048F20003C4F20303D3F89C30EA
:1029F0004FEA931303F00703BB61BB6907F12002A1
:102A0000134413F81C3CFB77FB7F012B0BD0022BEC
:102A10000ED0002B14D100F025F803463B61386935
:102A200000F042F81AE04FF4004000F03DF815E0E5
:102A300044F24020C0F20F0000F036F800BF0DE075
:102A400044F24020C0F20F0000F02EF806E000F043
:102A500009F803463B61386900F026F807F12007C2
:102A6000BD4680BD80B483B000AF48F20003C4F21D
:102A70000303D3F8503103F004033B603B68002BA1
:102A800005D147F64003C0F27D137B6004E04FF2AE
:102A90008003C0F2FA237B607B68184607F10C07BD
:102AA000BD4680BC704700BF80B483B000AF786083
:102AB00043F24823C2F200037A681A6043F24C23BF
:102AC000C2F200037A681A6043F25023C2F2000394
:102AD0007A681A6043F25423C2F2000343F660524C
:102AE000C0F279221A6043F25823C2F200037A68D6
:102AF0001A6043F25C23C2F200037A681A6043F260
:102B00006023C2F200037A681A6007F10C07BD4621
:102B100080BC704780B483B000AF48F20003C4F2B9
:102B20000303D3F84C317B607A684FF602039A4274
:102B300006D04FF60203C0F201039A4204D007E028
:102B40004FF001033B6006E04FF002033B6002E000
:102B50004FF000033B603B68184607F10C07BD4689
:102B600080BC704780B582B000AFFFF7D3FF03464B
:102B70007B607B68012B01D100F004F807F10807A6
:102B8000BD4680BD80B400AF48F20003C4F2030329
:102B900048F20002C4F20302D2F8982042F4807294
:102BA000C3F8982048F20003C4F2030348F200027D
:102BB000C4F20302D2F8982022F08062C3F8982071
:102BC000BD4680BC704700BF80B483B000AF786062
:102BD0004FF0FF33184607F10C07BD4680BC704725
:102BE00080B584B000AFF860B9607A6000F02EF96B
:102BF00003464FF00C021A604FF0FF33184607F1FE
:102C00001007BD4680BD00BF80B483B000AF7860C0
:102C1000FEE700BF80B500AF00F018F903464FF0A3
:102C20000B021A604FF0FF33184680BD80B483B0AA
:102C300000AF786039603B684FF400525A604FF043
:102C40000003184607F10C07BD4680BC704700BF63
:102C500080B400AF4FF001031846BD4680BC7047FA
:102C600080B483B000AF78604FF00103184607F1DD
:102C70000C07BD4680BC704780B582B000AF78605D
:102C8000396000F0E3F803464FF016021A604FF087
:102C9000FF33184607F10807BD4680BD80B582B0F6
:102CA00000AF7860396000F0D1F803464FF01F02A2
:102CB0001A604FF0FF33184607F10807BD4680BD84
:102CC00080B485B000AFF860B9607A604FF000035F
:102CD000184607F11407BD4680BC704780B485B024
:102CE00000AFF860B9607A604FF0FF33184607F123
:102CF0001407BD4680BC704780B485B000AFF86053
:102D0000B9607A604FF00003184607F11407BD461A
:102D100080BC704780B485B000AFF860B9607A605D
:102D20003B604FF00003184607F11407BD4680BC16
:102D3000704700BF80B584B000AF786044F60C33B4
:102D4000C2F200031B68002B08D144F60C33C2F218
:102D5000000344F61842C2F200021A6044F60C3333
:102D6000C2F200031B68BB60EFF30883FB6044F60C
:102D70000C33C2F200031A687B681A44FB689A425B
:102D80000FD94FF000004FF0010143F2FC12C2F2E4
:102D900000024FF01903FFF7BDFF4FF00100FFF7EE
:102DA00033FF44F60C33C2F200031A687B681A44FE
:102DB00044F60C33C2F200031A60BB68184607F1F0
:102DC0001007BD4680BD00BF80B483B000AF7860FF
:102DD00039603B684FF400525A604FF000031846C8
:102DE00007F10C07BD4680BC704700BF80B483B0BC
:102DF00000AF78604FF0FF33184607F10C07BD466F
:102E000080BC704780B582B000AF786000F01EF8DB
:102E100003464FF002021A604FF0FF33184607F1E5
:102E20000807BD4680BD00BF80B582B000AF7860A6
:102E300000F00CF803464FF00A021A604FF0FF331F
:102E4000184607F10807BD4680BD00BF43F268235E
:102E5000C2F200031868704770B543F2382643F297
:102E60003825C2F20006C2F20005761BB61006D065
:102E7000002455F8243001349847A642F9D843F28B
:102E8000382543F23C26C2F20005C2F20006761B4A
:102E900000F0C6F9B61006D0002455F824300134ED
:102EA0009847A642F9D870BD032A2DE9F0070BD840
:102EB0003AB1002311F803C000F803C00133934274
:102EC000F8D1BDE8F007704782180C46034603E0CE
:102ED00014F8011C03F8011C03F003061946A4466C
:102EE00001330134002EF3D11CF00304634608BF04
:102EF000C1EB020C68D06542C4F1040A0CEB050773
:102F000033464FEACA0A5CF805604FEAC408551A0E
:102F100008E057F8044F264604FA0AF449EA040484
:102F2000CC5004335C18032D26FA08F9A5F10405EA
:102F30000CEB0306EDDC002302E0F15CE15401330D
:102F400019199142F9D3BCE753F8404C41F8404C71
:102F500053F83C4C41F83C4C53F8384C41F8384C51
:102F600053F8344C41F8344C53F8304C41F8304C61
:102F700053F82C4C41F82C4C53F8284C41F8284C71
:102F800053F8244C41F8244C53F8204C41F8204C81
:102F900053F81C4C41F81C4C53F8184C41F8184C91
:102FA00053F8144C41F8144C53F8104C41F8104CA1
:102FB00053F80C4C41F80C4C53F8084C41F8084CB1
:102FC00053F8044C41F8044C1C460D464033403144
:102FD000BCF13F0FACF1400CB6DC21462B46541B34
:102FE0000FE051F8105C43F8105C51F80C5C43F8AA
:102FF0000C5C51F8085C43F8085C51F8045C43F839
:10300000045C0F2C0D469C4601F1100103F11003E6
:10301000A4F11004E5DCCCEB0201002303E0EC5842
:103020004CF8034004335E19032903EB0C04A1F1AF
:103030000401F4DC7FE700BF032AC9B230B407D82B
:1030400022B10023C15401339342FBD130BC7047FD
:1030500000EB020C034601E003F8011C03F003043B
:103060001A460133002CF7D14FF00133C2EB0C04A8
:1030700003FB01F31FE042F8403C42F83C3C42F8BD
:10308000383C42F8343C42F8303C42F82C3C42F8A0
:10309000283C42F8243C42F8203C42F81C3C42F8D0
:1030A000183C42F8143C42F8103C42F80C3C42F800
:1030B000083C42F8043C154640323F2CA4F1400441
:1030C000D9DC2A46C5EB0C0407E042F8103C42F874
:1030D0000C3C42F8083C42F8043C154610320F2CD8
:1030E000A4F11004F1DC2A46C5EB0C0501E042F81E
:1030F000043C14460432032DA5F10405F7DC01E07D
:1031000004F8011B6445FBD3A0E700BF28A00240E0
:103110000F080000989D024030000000009C024013
:1031200080000000049C024020000000089C024037
:10313000F80000000C9C024080000000149C02403B
:1031400029000000189C024020000000249C02403E
:1031500080000000309C024010000000349C0240BF
:10316000380000003C9C024070000000D49D0240EA
:1031700002000000D89D024022000000989D0240FD
:1031800000000000009E02400100000028A0024054
:103190000F0F000003000C003000C0000003000C03
:1031A000003000C0010000000300800001000001A9
:1031B00003008001010000020300800201000003FF
:1031C00003008003010000040300000401008004E8
:1031D00003008004030000050100800501000006D3
:1031E00003000006010080060300800601000007BE
:1031F00003008007000100010202030348656170BB
:1032000020616E6420737461636B20636F6C6C6902
:1032100073696F6E0A0000006C32002043000000EA
:10322000F8B500BFF8BC08BC9E467047F8B500BFB3
:10323000F8BC08BC9E46704705030020F102002040
:10324000000000000000000080F5E409C07AF204EC
:10325000C07AF204603D790280F5E40980F5E40962
:1032600080F5E409084B00206C32002000000000CB
:10327000000000000000000000000000000000004E
:103280000000000000000000000000001C320020D0
:10329000000000000000000000000000000000002E
:1032A000000000000000000000000000000000001E
:1032B000000000000000000000000000000000000E
:1032C00000000000000000000000000000000000FE
:1032D00000000000000000000000000000000000EE
:1032E00000000000000000000000000000000000DE
:1032F00000000000000000000000000000000000CE
:1033000000000000000000000000000000000000BD
:1033100000000000000000000000000000000000AD
:10332000000000000000000000000000000000009D
:10333000000000000000000000000000000000008D
:10334000000000000000000000000000000000007D
:0C33500000000000000000000000000071
:04000005200001894D
:00000001FF
